:100000000C9434000C943E000C943E000C943E0082
:100010000C943E000C943E000C943E000C943E0068
:100020000C943E000C943E000C943E000C943E0058
:100030000C943E000C943E000C943E000C943E0048
:100040000C943E000C943E000C943E000C943E0038
:100050000C943E000C943E000C943E000C943E0028
:100060000C943E000C943E0011241FBECFEFD8E04C
:10007000DEBFCDBF0E94F4000C94B8010C940000C8
:1000800080E480937C0087E880937A0008959091C3
:100090007C00987F90937C0090917C008770892BE6
:1000A00080937C0080917A00806480937A008091B4
:1000B0007A0084FFFCCF80917A00806180937A007F
:1000C0002091780030917900C9010895E0E8F0E0CE
:1000D000808183688083E1E8F0E080818B608083A9
:1000E000219A08959C01809180008368809380000C
:1000F000809181008B6080938100219A293C310599
:10010000A0F48DEC90E0909389008093880020E02B
:1001100030E040E951E0CA010197F1F72F5F3F4F0E
:1001200087E0203D3807B9F70895C901825D904006
:1001300083529140A0F48AE991E0909389008093E2
:10014000880020E030E040E951E0CA010197F1F772
:100150002F5F3F4F87E0203D3807B9F70895C90169
:100160008E5F91408F3B9105C8F0265C32402B5347
:10017000314040F58DEC93E09093890080938800A6
:1001800020E030E040E951E0CA010197F1F72F5F2C
:100190003F4F87E0203D3807B9F708958DEC92E096
:1001A000909389008093880020E030E040E951E09E
:1001B000CA010197F1F72F5F3F4F87E0203D3807D5
:1001C000B9F70895109289001092880020E030E07D
:1001D00040E951E0CA010197F1F72F5F3F4F87E0F7
:1001E000203D3807B9F708958F929F92AF92BF9242
:1001F000CF92DF92EF92FF920F931F93CF93DF93F3
:100200000E94AE0110E407E8C0E9D1E03DECC32E46
:1002100033E0D32E2DECA22E22E0B22E9AE9892EC5
:1002200091E0992E8DECE82EF12C03C00E94B601CE
:1002300028984A99FBCF4B99F9CF0E94B4011093AB
:100240007C0000937A0080917C00887F80937C0002
:1002500080917C00826080937C0080917A00806431
:1002600080937A0080917A0084FFFCCF80917A009D
:10027000806180937A00209178003091790080919C
:100280008000836880938000809181008B608093E0
:100290008100219A293C310580F4F0928900E09296
:1002A000880020E030E0CE010197F1F72F5F3F4F4B
:1002B00047E0203D3407B9F7BCCFC901825D9040CB
:1002C0008352914080F4909289008092880020E0CF
:1002D00030E0CE010197F1F72F5F3F4F87E0203DDF
:1002E0003807B9F7A6CFC9018E5F91408F3B9105C2
:1002F00080F4B0928900A092880020E030E0CE0126
:100300000197F1F72F5F3F4F47E0203D3407B9F7E2
:1003100090CF265C32402B53314080F4D09289003C
:10032000C092880020E030E0CE010197F1F72F5F06
:100330003F4F47E0203D3407B9F77BCF109289004B
:100340001092880020E030E0CE010197F1F72F5F96
:100350003F4F87E0203D3807B9F76BCF209A52987E
:100360005A9A53985B9A0895289A08952898089560
:04037000F894FFCF2F
:00000001FF
